{
  "_format": "hh-sol-artifact-1",
  "contractName": "NFTCollectible",
  "sourceName": "contracts/NFTCollectible.sol",
  "abi": [
    {
      "inputs": [
        {
          "internalType": "string",
          "name": "baseURI",
          "type": "string"
        }
      ],
      "stateMutability": "nonpayable",
      "type": "constructor"
    },
    {
      "anonymous": false,
      "inputs": [
        {
          "indexed": true,
          "internalType": "address",
          "name": "owner",
          "type": "address"
        },
        {
          "indexed": true,
          "internalType": "address",
          "name": "approved",
          "type": "address"
        },
        {
          "indexed": true,
          "internalType": "uint256",
          "name": "tokenId",
          "type": "uint256"
        }
      ],
      "name": "Approval",
      "type": "event"
    },
    {
      "anonymous": false,
      "inputs": [
        {
          "indexed": true,
          "internalType": "address",
          "name": "owner",
          "type": "address"
        },
        {
          "indexed": true,
          "internalType": "address",
          "name": "operator",
          "type": "address"
        },
        {
          "indexed": false,
          "internalType": "bool",
          "name": "approved",
          "type": "bool"
        }
      ],
      "name": "ApprovalForAll",
      "type": "event"
    },
    {
      "anonymous": false,
      "inputs": [
        {
          "indexed": true,
          "internalType": "address",
          "name": "previousOwner",
          "type": "address"
        },
        {
          "indexed": true,
          "internalType": "address",
          "name": "newOwner",
          "type": "address"
        }
      ],
      "name": "OwnershipTransferred",
      "type": "event"
    },
    {
      "anonymous": false,
      "inputs": [
        {
          "indexed": true,
          "internalType": "address",
          "name": "from",
          "type": "address"
        },
        {
          "indexed": true,
          "internalType": "address",
          "name": "to",
          "type": "address"
        },
        {
          "indexed": true,
          "internalType": "uint256",
          "name": "tokenId",
          "type": "uint256"
        }
      ],
      "name": "Transfer",
      "type": "event"
    },
    {
      "inputs": [],
      "name": "MAX_PER_MINT",
      "outputs": [
        {
          "internalType": "uint256",
          "name": "",
          "type": "uint256"
        }
      ],
      "stateMutability": "view",
      "type": "function"
    },
    {
      "inputs": [],
      "name": "MAX_SUPPLY",
      "outputs": [
        {
          "internalType": "uint256",
          "name": "",
          "type": "uint256"
        }
      ],
      "stateMutability": "view",
      "type": "function"
    },
    {
      "inputs": [],
      "name": "PRICE",
      "outputs": [
        {
          "internalType": "uint256",
          "name": "",
          "type": "uint256"
        }
      ],
      "stateMutability": "view",
      "type": "function"
    },
    {
      "inputs": [
        {
          "internalType": "address",
          "name": "to",
          "type": "address"
        },
        {
          "internalType": "uint256",
          "name": "tokenId",
          "type": "uint256"
        }
      ],
      "name": "approve",
      "outputs": [],
      "stateMutability": "nonpayable",
      "type": "function"
    },
    {
      "inputs": [
        {
          "internalType": "address",
          "name": "owner",
          "type": "address"
        }
      ],
      "name": "balanceOf",
      "outputs": [
        {
          "internalType": "uint256",
          "name": "",
          "type": "uint256"
        }
      ],
      "stateMutability": "view",
      "type": "function"
    },
    {
      "inputs": [],
      "name": "baseTokenURI",
      "outputs": [
        {
          "internalType": "string",
          "name": "",
          "type": "string"
        }
      ],
      "stateMutability": "view",
      "type": "function"
    },
    {
      "inputs": [
        {
          "internalType": "uint256",
          "name": "tokenId",
          "type": "uint256"
        }
      ],
      "name": "getApproved",
      "outputs": [
        {
          "internalType": "address",
          "name": "",
          "type": "address"
        }
      ],
      "stateMutability": "view",
      "type": "function"
    },
    {
      "inputs": [
        {
          "internalType": "address",
          "name": "owner",
          "type": "address"
        },
        {
          "internalType": "address",
          "name": "operator",
          "type": "address"
        }
      ],
      "name": "isApprovedForAll",
      "outputs": [
        {
          "internalType": "bool",
          "name": "",
          "type": "bool"
        }
      ],
      "stateMutability": "view",
      "type": "function"
    },
    {
      "inputs": [
        {
          "internalType": "uint256",
          "name": "_count",
          "type": "uint256"
        }
      ],
      "name": "mintNFTs",
      "outputs": [],
      "stateMutability": "payable",
      "type": "function"
    },
    {
      "inputs": [],
      "name": "name",
      "outputs": [
        {
          "internalType": "string",
          "name": "",
          "type": "string"
        }
      ],
      "stateMutability": "view",
      "type": "function"
    },
    {
      "inputs": [],
      "name": "owner",
      "outputs": [
        {
          "internalType": "address",
          "name": "",
          "type": "address"
        }
      ],
      "stateMutability": "view",
      "type": "function"
    },
    {
      "inputs": [
        {
          "internalType": "uint256",
          "name": "tokenId",
          "type": "uint256"
        }
      ],
      "name": "ownerOf",
      "outputs": [
        {
          "internalType": "address",
          "name": "",
          "type": "address"
        }
      ],
      "stateMutability": "view",
      "type": "function"
    },
    {
      "inputs": [],
      "name": "renounceOwnership",
      "outputs": [],
      "stateMutability": "nonpayable",
      "type": "function"
    },
    {
      "inputs": [],
      "name": "reserveNFTs",
      "outputs": [],
      "stateMutability": "nonpayable",
      "type": "function"
    },
    {
      "inputs": [
        {
          "internalType": "address",
          "name": "from",
          "type": "address"
        },
        {
          "internalType": "address",
          "name": "to",
          "type": "address"
        },
        {
          "internalType": "uint256",
          "name": "tokenId",
          "type": "uint256"
        }
      ],
      "name": "safeTransferFrom",
      "outputs": [],
      "stateMutability": "nonpayable",
      "type": "function"
    },
    {
      "inputs": [
        {
          "internalType": "address",
          "name": "from",
          "type": "address"
        },
        {
          "internalType": "address",
          "name": "to",
          "type": "address"
        },
        {
          "internalType": "uint256",
          "name": "tokenId",
          "type": "uint256"
        },
        {
          "internalType": "bytes",
          "name": "_data",
          "type": "bytes"
        }
      ],
      "name": "safeTransferFrom",
      "outputs": [],
      "stateMutability": "nonpayable",
      "type": "function"
    },
    {
      "inputs": [
        {
          "internalType": "address",
          "name": "operator",
          "type": "address"
        },
        {
          "internalType": "bool",
          "name": "approved",
          "type": "bool"
        }
      ],
      "name": "setApprovalForAll",
      "outputs": [],
      "stateMutability": "nonpayable",
      "type": "function"
    },
    {
      "inputs": [
        {
          "internalType": "string",
          "name": "_baseTokenURI",
          "type": "string"
        }
      ],
      "name": "setBaseURI",
      "outputs": [],
      "stateMutability": "nonpayable",
      "type": "function"
    },
    {
      "inputs": [
        {
          "internalType": "bytes4",
          "name": "interfaceId",
          "type": "bytes4"
        }
      ],
      "name": "supportsInterface",
      "outputs": [
        {
          "internalType": "bool",
          "name": "",
          "type": "bool"
        }
      ],
      "stateMutability": "view",
      "type": "function"
    },
    {
      "inputs": [],
      "name": "symbol",
      "outputs": [
        {
          "internalType": "string",
          "name": "",
          "type": "string"
        }
      ],
      "stateMutability": "view",
      "type": "function"
    },
    {
      "inputs": [
        {
          "internalType": "uint256",
          "name": "index",
          "type": "uint256"
        }
      ],
      "name": "tokenByIndex",
      "outputs": [
        {
          "internalType": "uint256",
          "name": "",
          "type": "uint256"
        }
      ],
      "stateMutability": "view",
      "type": "function"
    },
    {
      "inputs": [
        {
          "internalType": "address",
          "name": "owner",
          "type": "address"
        },
        {
          "internalType": "uint256",
          "name": "index",
          "type": "uint256"
        }
      ],
      "name": "tokenOfOwnerByIndex",
      "outputs": [
        {
          "internalType": "uint256",
          "name": "",
          "type": "uint256"
        }
      ],
      "stateMutability": "view",
      "type": "function"
    },
    {
      "inputs": [
        {
          "internalType": "uint256",
          "name": "tokenId",
          "type": "uint256"
        }
      ],
      "name": "tokenURI",
      "outputs": [
        {
          "internalType": "string",
          "name": "",
          "type": "string"
        }
      ],
      "stateMutability": "view",
      "type": "function"
    },
    {
      "inputs": [
        {
          "internalType": "address",
          "name": "_owner",
          "type": "address"
        }
      ],
      "name": "tokensOfOwner",
      "outputs": [
        {
          "internalType": "uint256[]",
          "name": "",
          "type": "uint256[]"
        }
      ],
      "stateMutability": "view",
      "type": "function"
    },
    {
      "inputs": [],
      "name": "totalSupply",
      "outputs": [
        {
          "internalType": "uint256",
          "name": "",
          "type": "uint256"
        }
      ],
      "stateMutability": "view",
      "type": "function"
    },
    {
      "inputs": [
        {
          "internalType": "address",
          "name": "from",
          "type": "address"
        },
        {
          "internalType": "address",
          "name": "to",
          "type": "address"
        },
        {
          "internalType": "uint256",
          "name": "tokenId",
          "type": "uint256"
        }
      ],
      "name": "transferFrom",
      "outputs": [],
      "stateMutability": "nonpayable",
      "type": "function"
    },
    {
      "inputs": [
        {
          "internalType": "address",
          "name": "newOwner",
          "type": "address"
        }
      ],
      "name": "transferOwnership",
      "outputs": [],
      "stateMutability": "nonpayable",
      "type": "function"
    },
    {
      "inputs": [],
      "name": "withdraw",
      "outputs": [],
      "stateMutability": "payable",
      "type": "function"
    }
  ],
  "bytecode": "0x60806040523480156200001157600080fd5b506040516200488f3803806200488f8339818101604052810190620000379190620003d4565b6040518060400160405280600f81526020017f4e465420436f6c6c65637469626c6500000000000000000000000000000000008152506040518060400160405280600481526020017f4e465443000000000000000000000000000000000000000000000000000000008152508160009080519060200190620000bb929190620002b2565b508060019080519060200190620000d4929190620002b2565b505050620000f7620000eb6200010f60201b60201c565b6200011760201b60201c565b6200010881620001dd60201b60201c565b506200060c565b600033905090565b6000600a60009054906101000a900473ffffffffffffffffffffffffffffffffffffffff16905081600a60006101000a81548173ffffffffffffffffffffffffffffffffffffffff021916908373ffffffffffffffffffffffffffffffffffffffff1602179055508173ffffffffffffffffffffffffffffffffffffffff168173ffffffffffffffffffffffffffffffffffffffff167f8be0079c531659141344cd1fd0a4f28419497f9722a3daafe3b4186f6b6457e060405160405180910390a35050565b620001ed6200010f60201b60201c565b73ffffffffffffffffffffffffffffffffffffffff16620002136200028860201b60201c565b73ffffffffffffffffffffffffffffffffffffffff16146200026c576040517f08c379a0000000000000000000000000000000000000000000000000000000008152600401620002639062000440565b60405180910390fd5b80600c908051906020019062000284929190620002b2565b5050565b6000600a60009054906101000a900473ffffffffffffffffffffffffffffffffffffffff16905090565b828054620002c09062000508565b90600052602060002090601f016020900481019282620002e4576000855562000330565b82601f10620002ff57805160ff191683800117855562000330565b8280016001018555821562000330579182015b828111156200032f57825182559160200191906001019062000312565b5b5090506200033f919062000343565b5090565b5b808211156200035e57600081600090555060010162000344565b5090565b60006200037962000373846200048b565b62000462565b9050828152602081018484840111156200039257600080fd5b6200039f848285620004d2565b509392505050565b600082601f830112620003b957600080fd5b8151620003cb84826020860162000362565b91505092915050565b600060208284031215620003e757600080fd5b600082015167ffffffffffffffff8111156200040257600080fd5b6200041084828501620003a7565b91505092915050565b600062000428602083620004c1565b91506200043582620005e3565b602082019050919050565b600060208201905081810360008301526200045b8162000419565b9050919050565b60006200046e62000481565b90506200047c82826200053e565b919050565b6000604051905090565b600067ffffffffffffffff821115620004a957620004a8620005a3565b5b620004b482620005d2565b9050602081019050919050565b600082825260208201905092915050565b60005b83811015620004f2578082015181840152602081019050620004d5565b8381111562000502576000848401525b50505050565b600060028204905060018216806200052157607f821691505b6020821081141562000538576200053762000574565b5b50919050565b6200054982620005d2565b810181811067ffffffffffffffff821117156200056b576200056a620005a3565b5b80604052505050565b7f4e487b7100000000000000000000000000000000000000000000000000000000600052602260045260246000fd5b7f4e487b7100000000000000000000000000000000000000000000000000000000600052604160045260246000fd5b6000601f19601f8301169050919050565b7f4f776e61626c653a2063616c6c6572206973206e6f7420746865206f776e6572600082015250565b614273806200061c6000396000f3fe6080604052600436106101b75760003560e01c806355f804b3116100ec57806395d89b411161008a578063c87b56dd11610064578063c87b56dd146105de578063d547cfb71461061b578063e985e9c514610646578063f2fde38b14610683576101b7565b806395d89b4114610561578063a22cb4651461058c578063b88d4fde146105b5576101b7565b8063715018a6116100c6578063715018a6146104b75780638462151c146104ce5780638d859f3e1461050b5780638da5cb5b14610536576101b7565b806355f804b3146104145780636352211e1461043d57806370a082311461047a576101b7565b806323b872dd116101595780633b4b1381116101335780633b4b1381146103885780633ccfd60b146103a457806342842e0e146103ae5780634f6ccce7146103d7576101b7565b806323b872dd146102f75780632f745c591461032057806332cb6b0c1461035d576101b7565b8063095ea7b311610195578063095ea7b31461026157806309d42b301461028a578063144100c7146102b557806318160ddd146102cc576101b7565b806301ffc9a7146101bc57806306fdde03146101f9578063081812fc14610224575b600080fd5b3480156101c857600080fd5b506101e360048036038101906101de9190612d8d565b6106ac565b6040516101f091906133cb565b60405180910390f35b34801561020557600080fd5b5061020e610726565b60405161021b91906133e6565b60405180910390f35b34801561023057600080fd5b5061024b60048036038101906102469190612e20565b6107b8565b6040516102589190613342565b60405180910390f35b34801561026d57600080fd5b5061028860048036038101906102839190612d51565b61083d565b005b34801561029657600080fd5b5061029f610955565b6040516102ac9190613708565b60405180910390f35b3480156102c157600080fd5b506102ca61095a565b005b3480156102d857600080fd5b506102e1610a65565b6040516102ee9190613708565b60405180910390f35b34801561030357600080fd5b5061031e60048036038101906103199190612c4b565b610a72565b005b34801561032c57600080fd5b5061034760048036038101906103429190612d51565b610ad2565b6040516103549190613708565b60405180910390f35b34801561036957600080fd5b50610372610b77565b60405161037f9190613708565b60405180910390f35b6103a2600480360381019061039d9190612e20565b610b7c565b005b6103ac610cb8565b005b3480156103ba57600080fd5b506103d560048036038101906103d09190612c4b565b610e2c565b005b3480156103e357600080fd5b506103fe60048036038101906103f99190612e20565b610e4c565b60405161040b9190613708565b60405180910390f35b34801561042057600080fd5b5061043b60048036038101906104369190612ddf565b610ee3565b005b34801561044957600080fd5b50610464600480360381019061045f9190612e20565b610f79565b6040516104719190613342565b60405180910390f35b34801561048657600080fd5b506104a1600480360381019061049c9190612be6565b61102b565b6040516104ae9190613708565b60405180910390f35b3480156104c357600080fd5b506104cc6110e3565b005b3480156104da57600080fd5b506104f560048036038101906104f09190612be6565b61116b565b60405161050291906133a9565b60405180910390f35b34801561051757600080fd5b50610520611265565b60405161052d9190613708565b60405180910390f35b34801561054257600080fd5b5061054b611271565b6040516105589190613342565b60405180910390f35b34801561056d57600080fd5b5061057661129b565b60405161058391906133e6565b60405180910390f35b34801561059857600080fd5b506105b360048036038101906105ae9190612d15565b61132d565b005b3480156105c157600080fd5b506105dc60048036038101906105d79190612c9a565b611343565b005b3480156105ea57600080fd5b5061060560048036038101906106009190612e20565b6113a5565b60405161061291906133e6565b60405180910390f35b34801561062757600080fd5b5061063061144c565b60405161063d91906133e6565b60405180910390f35b34801561065257600080fd5b5061066d60048036038101906106689190612c0f565b6114da565b60405161067a91906133cb565b60405180910390f35b34801561068f57600080fd5b506106aa60048036038101906106a59190612be6565b61156e565b005b60007f780e9d63000000000000000000000000000000000000000000000000000000007bffffffffffffffffffffffffffffffffffffffffffffffffffffffff1916827bffffffffffffffffffffffffffffffffffffffffffffffffffffffff1916148061071f575061071e82611666565b5b9050919050565b606060008054610735906139fc565b80601f0160208091040260200160405190810160405280929190818152602001828054610761906139fc565b80156107ae5780601f10610783576101008083540402835291602001916107ae565b820191906000526020600020905b81548152906001019060200180831161079157829003601f168201915b5050505050905090565b60006107c382611748565b610802576040517f08c379a00000000000000000000000000000000000000000000000000000000081526004016107f990613628565b60405180910390fd5b6004600083815260200190815260200160002060009054906101000a900473ffffffffffffffffffffffffffffffffffffffff169050919050565b600061084882610f79565b90508073ffffffffffffffffffffffffffffffffffffffff168373ffffffffffffffffffffffffffffffffffffffff1614156108b9576040517f08c379a00000000000000000000000000000000000000000000000000000000081526004016108b090613688565b60405180910390fd5b8073ffffffffffffffffffffffffffffffffffffffff166108d86117b4565b73ffffffffffffffffffffffffffffffffffffffff1614806109075750610906816109016117b4565b6114da565b5b610946576040517f08c379a000000000000000000000000000000000000000000000000000000000815260040161093d90613568565b60405180910390fd5b61095083836117bc565b505050565b600381565b6109626117b4565b73ffffffffffffffffffffffffffffffffffffffff16610980611271565b73ffffffffffffffffffffffffffffffffffffffff16146109d6576040517f08c379a00000000000000000000000000000000000000000000000000000000081526004016109cd90613648565b60405180910390fd5b60006109e2600b611875565b9050601e6109fa600a8361188390919063ffffffff16565b10610a3a576040517f08c379a0000000000000000000000000000000000000000000000000000000008152600401610a31906135c8565b60405180910390fd5b60005b600a811015610a6157610a4e611899565b8080610a5990613a5f565b915050610a3d565b5050565b6000600880549050905090565b610a83610a7d6117b4565b826118be565b610ac2576040517f08c379a0000000000000000000000000000000000000000000000000000000008152600401610ab9906136c8565b60405180910390fd5b610acd83838361199c565b505050565b6000610add8361102b565b8210610b1e576040517f08c379a0000000000000000000000000000000000000000000000000000000008152600401610b1590613428565b60405180910390fd5b600660008473ffffffffffffffffffffffffffffffffffffffff1673ffffffffffffffffffffffffffffffffffffffff168152602001908152602001600020600083815260200190815260200160002054905092915050565b601e81565b6000610b88600b611875565b9050601e610b9f838361188390919063ffffffff16565b1115610be0576040517f08c379a0000000000000000000000000000000000000000000000000000000008152600401610bd790613408565b60405180910390fd5b600082118015610bf1575060038211155b610c30576040517f08c379a0000000000000000000000000000000000000000000000000000000008152600401610c2790613528565b60405180910390fd5b610c4b8267ebec21ee1da40000611c0390919063ffffffff16565b341015610c8d576040517f08c379a0000000000000000000000000000000000000000000000000000000008152600401610c8490613508565b60405180910390fd5b60005b82811015610cb357610ca0611899565b8080610cab90613a5f565b915050610c90565b505050565b610cc06117b4565b73ffffffffffffffffffffffffffffffffffffffff16610cde611271565b73ffffffffffffffffffffffffffffffffffffffff1614610d34576040517f08c379a0000000000000000000000000000000000000000000000000000000008152600401610d2b90613648565b60405180910390fd5b600047905060008111610d7c576040517f08c379a0000000000000000000000000000000000000000000000000000000008152600401610d7390613608565b60405180910390fd5b60003373ffffffffffffffffffffffffffffffffffffffff1682604051610da29061332d565b60006040518083038185875af1925050503d8060008114610ddf576040519150601f19603f3d011682016040523d82523d6000602084013e610de4565b606091505b5050905080610e28576040517f08c379a0000000000000000000000000000000000000000000000000000000008152600401610e1f906136a8565b60405180910390fd5b5050565b610e4783838360405180602001604052806000815250611343565b505050565b6000610e56610a65565b8210610e97576040517f08c379a0000000000000000000000000000000000000000000000000000000008152600401610e8e906136e8565b60405180910390fd5b60088281548110610ed1577f4e487b7100000000000000000000000000000000000000000000000000000000600052603260045260246000fd5b90600052602060002001549050919050565b610eeb6117b4565b73ffffffffffffffffffffffffffffffffffffffff16610f09611271565b73ffffffffffffffffffffffffffffffffffffffff1614610f5f576040517f08c379a0000000000000000000000000000000000000000000000000000000008152600401610f5690613648565b60405180910390fd5b80600c9080519060200190610f75929190612a0a565b5050565b6000806002600084815260200190815260200160002060009054906101000a900473ffffffffffffffffffffffffffffffffffffffff169050600073ffffffffffffffffffffffffffffffffffffffff168173ffffffffffffffffffffffffffffffffffffffff161415611022576040517f08c379a0000000000000000000000000000000000000000000000000000000008152600401611019906135a8565b60405180910390fd5b80915050919050565b60008073ffffffffffffffffffffffffffffffffffffffff168273ffffffffffffffffffffffffffffffffffffffff16141561109c576040517f08c379a000000000000000000000000000000000000000000000000000000000815260040161109390613588565b60405180910390fd5b600360008373ffffffffffffffffffffffffffffffffffffffff1673ffffffffffffffffffffffffffffffffffffffff168152602001908152602001600020549050919050565b6110eb6117b4565b73ffffffffffffffffffffffffffffffffffffffff16611109611271565b73ffffffffffffffffffffffffffffffffffffffff161461115f576040517f08c379a000000000000000000000000000000000000000000000000000000000815260040161115690613648565b60405180910390fd5b6111696000611c19565b565b606060006111788361102b565b905060008167ffffffffffffffff8111156111bc577f4e487b7100000000000000000000000000000000000000000000000000000000600052604160045260246000fd5b6040519080825280602002602001820160405280156111ea5781602001602082028036833780820191505090505b50905060005b8281101561125a576112028582610ad2565b82828151811061123b577f4e487b7100000000000000000000000000000000000000000000000000000000600052603260045260246000fd5b602002602001018181525050808061125290613a5f565b9150506111f0565b508092505050919050565b67ebec21ee1da4000081565b6000600a60009054906101000a900473ffffffffffffffffffffffffffffffffffffffff16905090565b6060600180546112aa906139fc565b80601f01602080910402602001604051908101604052809291908181526020018280546112d6906139fc565b80156113235780601f106112f857610100808354040283529160200191611323565b820191906000526020600020905b81548152906001019060200180831161130657829003601f168201915b5050505050905090565b61133f6113386117b4565b8383611cdf565b5050565b61135461134e6117b4565b836118be565b611393576040517f08c379a000000000000000000000000000000000000000000000000000000000815260040161138a906136c8565b60405180910390fd5b61139f84848484611e4c565b50505050565b60606113b082611748565b6113ef576040517f08c379a00000000000000000000000000000000000000000000000000000000081526004016113e690613668565b60405180910390fd5b60006113f9611ea8565b905060008151116114195760405180602001604052806000815250611444565b8061142384611f3a565b604051602001611434929190613309565b6040516020818303038152906040525b915050919050565b600c8054611459906139fc565b80601f0160208091040260200160405190810160405280929190818152602001828054611485906139fc565b80156114d25780601f106114a7576101008083540402835291602001916114d2565b820191906000526020600020905b8154815290600101906020018083116114b557829003601f168201915b505050505081565b6000600560008473ffffffffffffffffffffffffffffffffffffffff1673ffffffffffffffffffffffffffffffffffffffff16815260200190815260200160002060008373ffffffffffffffffffffffffffffffffffffffff1673ffffffffffffffffffffffffffffffffffffffff16815260200190815260200160002060009054906101000a900460ff16905092915050565b6115766117b4565b73ffffffffffffffffffffffffffffffffffffffff16611594611271565b73ffffffffffffffffffffffffffffffffffffffff16146115ea576040517f08c379a00000000000000000000000000000000000000000000000000000000081526004016115e190613648565b60405180910390fd5b600073ffffffffffffffffffffffffffffffffffffffff168173ffffffffffffffffffffffffffffffffffffffff16141561165a576040517f08c379a000000000000000000000000000000000000000000000000000000000815260040161165190613468565b60405180910390fd5b61166381611c19565b50565b60007f80ac58cd000000000000000000000000000000000000000000000000000000007bffffffffffffffffffffffffffffffffffffffffffffffffffffffff1916827bffffffffffffffffffffffffffffffffffffffffffffffffffffffff1916148061173157507f5b5e139f000000000000000000000000000000000000000000000000000000007bffffffffffffffffffffffffffffffffffffffffffffffffffffffff1916827bffffffffffffffffffffffffffffffffffffffffffffffffffffffff1916145b806117415750611740826120e7565b5b9050919050565b60008073ffffffffffffffffffffffffffffffffffffffff166002600084815260200190815260200160002060009054906101000a900473ffffffffffffffffffffffffffffffffffffffff1673ffffffffffffffffffffffffffffffffffffffff1614159050919050565b600033905090565b816004600083815260200190815260200160002060006101000a81548173ffffffffffffffffffffffffffffffffffffffff021916908373ffffffffffffffffffffffffffffffffffffffff160217905550808273ffffffffffffffffffffffffffffffffffffffff1661182f83610f79565b73ffffffffffffffffffffffffffffffffffffffff167f8c5be1e5ebec7d5bd14f71427d1e84f3dd0314c0f7b2291e5b200ac8c7c3b92560405160405180910390a45050565b600081600001549050919050565b600081836118919190613831565b905092915050565b60006118a5600b611875565b90506118b13382612151565b6118bb600b61216f565b50565b60006118c982611748565b611908576040517f08c379a00000000000000000000000000000000000000000000000000000000081526004016118ff90613548565b60405180910390fd5b600061191383610f79565b90508073ffffffffffffffffffffffffffffffffffffffff168473ffffffffffffffffffffffffffffffffffffffff16148061198257508373ffffffffffffffffffffffffffffffffffffffff1661196a846107b8565b73ffffffffffffffffffffffffffffffffffffffff16145b80611993575061199281856114da565b5b91505092915050565b8273ffffffffffffffffffffffffffffffffffffffff166119bc82610f79565b73ffffffffffffffffffffffffffffffffffffffff1614611a12576040517f08c379a0000000000000000000000000000000000000000000000000000000008152600401611a0990613488565b60405180910390fd5b600073ffffffffffffffffffffffffffffffffffffffff168273ffffffffffffffffffffffffffffffffffffffff161415611a82576040517f08c379a0000000000000000000000000000000000000000000000000000000008152600401611a79906134c8565b60405180910390fd5b611a8d838383612185565b611a986000826117bc565b6001600360008573ffffffffffffffffffffffffffffffffffffffff1673ffffffffffffffffffffffffffffffffffffffff1681526020019081526020016000206000828254611ae89190613912565b925050819055506001600360008473ffffffffffffffffffffffffffffffffffffffff1673ffffffffffffffffffffffffffffffffffffffff1681526020019081526020016000206000828254611b3f9190613831565b92505081905550816002600083815260200190815260200160002060006101000a81548173ffffffffffffffffffffffffffffffffffffffff021916908373ffffffffffffffffffffffffffffffffffffffff160217905550808273ffffffffffffffffffffffffffffffffffffffff168473ffffffffffffffffffffffffffffffffffffffff167fddf252ad1be2c89b69c2b068fc378daa952ba7f163c4a11628f55a4df523b3ef60405160405180910390a4611bfe838383612299565b505050565b60008183611c1191906138b8565b905092915050565b6000600a60009054906101000a900473ffffffffffffffffffffffffffffffffffffffff16905081600a60006101000a81548173ffffffffffffffffffffffffffffffffffffffff021916908373ffffffffffffffffffffffffffffffffffffffff1602179055508173ffffffffffffffffffffffffffffffffffffffff168173ffffffffffffffffffffffffffffffffffffffff167f8be0079c531659141344cd1fd0a4f28419497f9722a3daafe3b4186f6b6457e060405160405180910390a35050565b8173ffffffffffffffffffffffffffffffffffffffff168373ffffffffffffffffffffffffffffffffffffffff161415611d4e576040517f08c379a0000000000000000000000000000000000000000000000000000000008152600401611d45906134e8565b60405180910390fd5b80600560008573ffffffffffffffffffffffffffffffffffffffff1673ffffffffffffffffffffffffffffffffffffffff16815260200190815260200160002060008473ffffffffffffffffffffffffffffffffffffffff1673ffffffffffffffffffffffffffffffffffffffff16815260200190815260200160002060006101000a81548160ff0219169083151502179055508173ffffffffffffffffffffffffffffffffffffffff168373ffffffffffffffffffffffffffffffffffffffff167f17307eab39ab6107e8899845ad3d59bd9653f200f220920489ca2b5937696c3183604051611e3f91906133cb565b60405180910390a3505050565b611e5784848461199c565b611e638484848461229e565b611ea2576040517f08c379a0000000000000000000000000000000000000000000000000000000008152600401611e9990613448565b60405180910390fd5b50505050565b6060600c8054611eb7906139fc565b80601f0160208091040260200160405190810160405280929190818152602001828054611ee3906139fc565b8015611f305780601f10611f0557610100808354040283529160200191611f30565b820191906000526020600020905b815481529060010190602001808311611f1357829003601f168201915b5050505050905090565b60606000821415611f82576040518060400160405280600181526020017f300000000000000000000000000000000000000000000000000000000000000081525090506120e2565b600082905060005b60008214611fb4578080611f9d90613a5f565b915050600a82611fad9190613887565b9150611f8a565b60008167ffffffffffffffff811115611ff6577f4e487b7100000000000000000000000000000000000000000000000000000000600052604160045260246000fd5b6040519080825280601f01601f1916602001820160405280156120285781602001600182028036833780820191505090505b5090505b600085146120db576001826120419190613912565b9150600a856120509190613aa8565b603061205c9190613831565b60f81b818381518110612098577f4e487b7100000000000000000000000000000000000000000000000000000000600052603260045260246000fd5b60200101907effffffffffffffffffffffffffffffffffffffffffffffffffffffffffffff1916908160001a905350600a856120d49190613887565b945061202c565b8093505050505b919050565b60007f01ffc9a7000000000000000000000000000000000000000000000000000000007bffffffffffffffffffffffffffffffffffffffffffffffffffffffff1916827bffffffffffffffffffffffffffffffffffffffffffffffffffffffff1916149050919050565b61216b828260405180602001604052806000815250612435565b5050565b6001816000016000828254019250508190555050565b612190838383612490565b600073ffffffffffffffffffffffffffffffffffffffff168373ffffffffffffffffffffffffffffffffffffffff1614156121d3576121ce81612495565b612212565b8173ffffffffffffffffffffffffffffffffffffffff168373ffffffffffffffffffffffffffffffffffffffff16146122115761221083826124de565b5b5b600073ffffffffffffffffffffffffffffffffffffffff168273ffffffffffffffffffffffffffffffffffffffff161415612255576122508161264b565b612294565b8273ffffffffffffffffffffffffffffffffffffffff168273ffffffffffffffffffffffffffffffffffffffff161461229357612292828261278e565b5b5b505050565b505050565b60006122bf8473ffffffffffffffffffffffffffffffffffffffff1661280d565b15612428578373ffffffffffffffffffffffffffffffffffffffff1663150b7a026122e86117b4565b8786866040518563ffffffff1660e01b815260040161230a949392919061335d565b602060405180830381600087803b15801561232457600080fd5b505af192505050801561235557506040513d601f19601f820116820180604052508101906123529190612db6565b60015b6123d8573d8060008114612385576040519150601f19603f3d011682016040523d82523d6000602084013e61238a565b606091505b506000815114156123d0576040517f08c379a00000000000000000000000000000000000000000000000000000000081526004016123c790613448565b60405180910390fd5b805181602001fd5b63150b7a0260e01b7bffffffffffffffffffffffffffffffffffffffffffffffffffffffff1916817bffffffffffffffffffffffffffffffffffffffffffffffffffffffff19161491505061242d565b600190505b949350505050565b61243f8383612830565b61244c600084848461229e565b61248b576040517f08c379a000000000000000000000000000000000000000000000000000000000815260040161248290613448565b60405180910390fd5b505050565b505050565b6008805490506009600083815260200190815260200160002081905550600881908060018154018082558091505060019003906000526020600020016000909190919091505550565b600060016124eb8461102b565b6124f59190613912565b90506000600760008481526020019081526020016000205490508181146125da576000600660008673ffffffffffffffffffffffffffffffffffffffff1673ffffffffffffffffffffffffffffffffffffffff168152602001908152602001600020600084815260200190815260200160002054905080600660008773ffffffffffffffffffffffffffffffffffffffff1673ffffffffffffffffffffffffffffffffffffffff168152602001908152602001600020600084815260200190815260200160002081905550816007600083815260200190815260200160002081905550505b6007600084815260200190815260200160002060009055600660008573ffffffffffffffffffffffffffffffffffffffff1673ffffffffffffffffffffffffffffffffffffffff16815260200190815260200160002060008381526020019081526020016000206000905550505050565b6000600160088054905061265f9190613912565b90506000600960008481526020019081526020016000205490506000600883815481106126b5577f4e487b7100000000000000000000000000000000000000000000000000000000600052603260045260246000fd5b9060005260206000200154905080600883815481106126fd577f4e487b7100000000000000000000000000000000000000000000000000000000600052603260045260246000fd5b906000526020600020018190555081600960008381526020019081526020016000208190555060096000858152602001908152602001600020600090556008805480612772577f4e487b7100000000000000000000000000000000000000000000000000000000600052603160045260246000fd5b6001900381819060005260206000200160009055905550505050565b60006127998361102b565b905081600660008573ffffffffffffffffffffffffffffffffffffffff1673ffffffffffffffffffffffffffffffffffffffff168152602001908152602001600020600083815260200190815260200160002081905550806007600084815260200190815260200160002081905550505050565b6000808273ffffffffffffffffffffffffffffffffffffffff163b119050919050565b600073ffffffffffffffffffffffffffffffffffffffff168273ffffffffffffffffffffffffffffffffffffffff1614156128a0576040517f08c379a0000000000000000000000000000000000000000000000000000000008152600401612897906135e8565b60405180910390fd5b6128a981611748565b156128e9576040517f08c379a00000000000000000000000000000000000000000000000000000000081526004016128e0906134a8565b60405180910390fd5b6128f560008383612185565b6001600360008473ffffffffffffffffffffffffffffffffffffffff1673ffffffffffffffffffffffffffffffffffffffff16815260200190815260200160002060008282546129459190613831565b92505081905550816002600083815260200190815260200160002060006101000a81548173ffffffffffffffffffffffffffffffffffffffff021916908373ffffffffffffffffffffffffffffffffffffffff160217905550808273ffffffffffffffffffffffffffffffffffffffff16600073ffffffffffffffffffffffffffffffffffffffff167fddf252ad1be2c89b69c2b068fc378daa952ba7f163c4a11628f55a4df523b3ef60405160405180910390a4612a0660008383612299565b5050565b828054612a16906139fc565b90600052602060002090601f016020900481019282612a385760008555612a7f565b82601f10612a5157805160ff1916838001178555612a7f565b82800160010185558215612a7f579182015b82811115612a7e578251825591602001919060010190612a63565b5b509050612a8c9190612a90565b5090565b5b80821115612aa9576000816000905550600101612a91565b5090565b6000612ac0612abb84613748565b613723565b905082815260208101848484011115612ad857600080fd5b612ae38482856139ba565b509392505050565b6000612afe612af984613779565b613723565b905082815260208101848484011115612b1657600080fd5b612b218482856139ba565b509392505050565b600081359050612b38816141e1565b92915050565b600081359050612b4d816141f8565b92915050565b600081359050612b628161420f565b92915050565b600081519050612b778161420f565b92915050565b600082601f830112612b8e57600080fd5b8135612b9e848260208601612aad565b91505092915050565b600082601f830112612bb857600080fd5b8135612bc8848260208601612aeb565b91505092915050565b600081359050612be081614226565b92915050565b600060208284031215612bf857600080fd5b6000612c0684828501612b29565b91505092915050565b60008060408385031215612c2257600080fd5b6000612c3085828601612b29565b9250506020612c4185828601612b29565b9150509250929050565b600080600060608486031215612c6057600080fd5b6000612c6e86828701612b29565b9350506020612c7f86828701612b29565b9250506040612c9086828701612bd1565b9150509250925092565b60008060008060808587031215612cb057600080fd5b6000612cbe87828801612b29565b9450506020612ccf87828801612b29565b9350506040612ce087828801612bd1565b925050606085013567ffffffffffffffff811115612cfd57600080fd5b612d0987828801612b7d565b91505092959194509250565b60008060408385031215612d2857600080fd5b6000612d3685828601612b29565b9250506020612d4785828601612b3e565b9150509250929050565b60008060408385031215612d6457600080fd5b6000612d7285828601612b29565b9250506020612d8385828601612bd1565b9150509250929050565b600060208284031215612d9f57600080fd5b6000612dad84828501612b53565b91505092915050565b600060208284031215612dc857600080fd5b6000612dd684828501612b68565b91505092915050565b600060208284031215612df157600080fd5b600082013567ffffffffffffffff811115612e0b57600080fd5b612e1784828501612ba7565b91505092915050565b600060208284031215612e3257600080fd5b6000612e4084828501612bd1565b91505092915050565b6000612e5583836132eb565b60208301905092915050565b612e6a81613946565b82525050565b6000612e7b826137ba565b612e8581856137e8565b9350612e90836137aa565b8060005b83811015612ec1578151612ea88882612e49565b9750612eb3836137db565b925050600181019050612e94565b5085935050505092915050565b612ed781613958565b82525050565b6000612ee8826137c5565b612ef281856137f9565b9350612f028185602086016139c9565b612f0b81613b95565b840191505092915050565b6000612f21826137d0565b612f2b8185613815565b9350612f3b8185602086016139c9565b612f4481613b95565b840191505092915050565b6000612f5a826137d0565b612f648185613826565b9350612f748185602086016139c9565b80840191505092915050565b6000612f8d601083613815565b9150612f9882613ba6565b602082019050919050565b6000612fb0602b83613815565b9150612fbb82613bcf565b604082019050919050565b6000612fd3603283613815565b9150612fde82613c1e565b604082019050919050565b6000612ff6602683613815565b915061300182613c6d565b604082019050919050565b6000613019602583613815565b915061302482613cbc565b604082019050919050565b600061303c601c83613815565b915061304782613d0b565b602082019050919050565b600061305f602483613815565b915061306a82613d34565b604082019050919050565b6000613082601983613815565b915061308d82613d83565b602082019050919050565b60006130a5602283613815565b91506130b082613dac565b604082019050919050565b60006130c8602583613815565b91506130d382613dfb565b604082019050919050565b60006130eb602c83613815565b91506130f682613e4a565b604082019050919050565b600061310e603883613815565b915061311982613e99565b604082019050919050565b6000613131602a83613815565b915061313c82613ee8565b604082019050919050565b6000613154602983613815565b915061315f82613f37565b604082019050919050565b6000613177600f83613815565b915061318282613f86565b602082019050919050565b600061319a602083613815565b91506131a582613faf565b602082019050919050565b60006131bd601983613815565b91506131c882613fd8565b602082019050919050565b60006131e0602c83613815565b91506131eb82614001565b604082019050919050565b6000613203602083613815565b915061320e82614050565b602082019050919050565b6000613226602f83613815565b915061323182614079565b604082019050919050565b6000613249602183613815565b9150613254826140c8565b604082019050919050565b600061326c60008361380a565b915061327782614117565b600082019050919050565b600061328f601083613815565b915061329a8261411a565b602082019050919050565b60006132b2603183613815565b91506132bd82614143565b604082019050919050565b60006132d5602c83613815565b91506132e082614192565b604082019050919050565b6132f4816139b0565b82525050565b613303816139b0565b82525050565b60006133158285612f4f565b91506133218284612f4f565b91508190509392505050565b60006133388261325f565b9150819050919050565b60006020820190506133576000830184612e61565b92915050565b60006080820190506133726000830187612e61565b61337f6020830186612e61565b61338c60408301856132fa565b818103606083015261339e8184612edd565b905095945050505050565b600060208201905081810360008301526133c38184612e70565b905092915050565b60006020820190506133e06000830184612ece565b92915050565b600060208201905081810360008301526134008184612f16565b905092915050565b6000602082019050818103600083015261342181612f80565b9050919050565b6000602082019050818103600083015261344181612fa3565b9050919050565b6000602082019050818103600083015261346181612fc6565b9050919050565b6000602082019050818103600083015261348181612fe9565b9050919050565b600060208201905081810360008301526134a18161300c565b9050919050565b600060208201905081810360008301526134c18161302f565b9050919050565b600060208201905081810360008301526134e181613052565b9050919050565b6000602082019050818103600083015261350181613075565b9050919050565b6000602082019050818103600083015261352181613098565b9050919050565b60006020820190508181036000830152613541816130bb565b9050919050565b60006020820190508181036000830152613561816130de565b9050919050565b6000602082019050818103600083015261358181613101565b9050919050565b600060208201905081810360008301526135a181613124565b9050919050565b600060208201905081810360008301526135c181613147565b9050919050565b600060208201905081810360008301526135e18161316a565b9050919050565b600060208201905081810360008301526136018161318d565b9050919050565b60006020820190508181036000830152613621816131b0565b9050919050565b60006020820190508181036000830152613641816131d3565b9050919050565b60006020820190508181036000830152613661816131f6565b9050919050565b6000602082019050818103600083015261368181613219565b9050919050565b600060208201905081810360008301526136a18161323c565b9050919050565b600060208201905081810360008301526136c181613282565b9050919050565b600060208201905081810360008301526136e1816132a5565b9050919050565b60006020820190508181036000830152613701816132c8565b9050919050565b600060208201905061371d60008301846132fa565b92915050565b600061372d61373e565b90506137398282613a2e565b919050565b6000604051905090565b600067ffffffffffffffff82111561376357613762613b66565b5b61376c82613b95565b9050602081019050919050565b600067ffffffffffffffff82111561379457613793613b66565b5b61379d82613b95565b9050602081019050919050565b6000819050602082019050919050565b600081519050919050565b600081519050919050565b600081519050919050565b6000602082019050919050565b600082825260208201905092915050565b600082825260208201905092915050565b600081905092915050565b600082825260208201905092915050565b600081905092915050565b600061383c826139b0565b9150613847836139b0565b9250827fffffffffffffffffffffffffffffffffffffffffffffffffffffffffffffffff0382111561387c5761387b613ad9565b5b828201905092915050565b6000613892826139b0565b915061389d836139b0565b9250826138ad576138ac613b08565b5b828204905092915050565b60006138c3826139b0565b91506138ce836139b0565b9250817fffffffffffffffffffffffffffffffffffffffffffffffffffffffffffffffff048311821515161561390757613906613ad9565b5b828202905092915050565b600061391d826139b0565b9150613928836139b0565b92508282101561393b5761393a613ad9565b5b828203905092915050565b600061395182613990565b9050919050565b60008115159050919050565b60007fffffffff0000000000000000000000000000000000000000000000000000000082169050919050565b600073ffffffffffffffffffffffffffffffffffffffff82169050919050565b6000819050919050565b82818337600083830152505050565b60005b838110156139e75780820151818401526020810190506139cc565b838111156139f6576000848401525b50505050565b60006002820490506001821680613a1457607f821691505b60208210811415613a2857613a27613b37565b5b50919050565b613a3782613b95565b810181811067ffffffffffffffff82111715613a5657613a55613b66565b5b80604052505050565b6000613a6a826139b0565b91507fffffffffffffffffffffffffffffffffffffffffffffffffffffffffffffffff821415613a9d57613a9c613ad9565b5b600182019050919050565b6000613ab3826139b0565b9150613abe836139b0565b925082613ace57613acd613b08565b5b828206905092915050565b7f4e487b7100000000000000000000000000000000000000000000000000000000600052601160045260246000fd5b7f4e487b7100000000000000000000000000000000000000000000000000000000600052601260045260246000fd5b7f4e487b7100000000000000000000000000000000000000000000000000000000600052602260045260246000fd5b7f4e487b7100000000000000000000000000000000000000000000000000000000600052604160045260246000fd5b6000601f19601f8301169050919050565b7f4e6f7420656e6f756768204e4654732100000000000000000000000000000000600082015250565b7f455243373231456e756d657261626c653a206f776e657220696e646578206f7560008201527f74206f6620626f756e6473000000000000000000000000000000000000000000602082015250565b7f4552433732313a207472616e7366657220746f206e6f6e20455243373231526560008201527f63656976657220696d706c656d656e7465720000000000000000000000000000602082015250565b7f4f776e61626c653a206e6577206f776e657220697320746865207a65726f206160008201527f6464726573730000000000000000000000000000000000000000000000000000602082015250565b7f4552433732313a207472616e736665722066726f6d20696e636f72726563742060008201527f6f776e6572000000000000000000000000000000000000000000000000000000602082015250565b7f4552433732313a20746f6b656e20616c7265616479206d696e74656400000000600082015250565b7f4552433732313a207472616e7366657220746f20746865207a65726f2061646460008201527f7265737300000000000000000000000000000000000000000000000000000000602082015250565b7f4552433732313a20617070726f766520746f2063616c6c657200000000000000600082015250565b7f4e6f7420656e6f75676820657468657220746f207075726368617365204e465460008201527f732e000000000000000000000000000000000000000000000000000000000000602082015250565b7f43616e6e6f74206d696e7420737065636966696564206e756d626572206f662060008201527f4e4654732e000000000000000000000000000000000000000000000000000000602082015250565b7f4552433732313a206f70657261746f7220717565727920666f72206e6f6e657860008201527f697374656e7420746f6b656e0000000000000000000000000000000000000000602082015250565b7f4552433732313a20617070726f76652063616c6c6572206973206e6f74206f7760008201527f6e6572206e6f7220617070726f76656420666f7220616c6c0000000000000000602082015250565b7f4552433732313a2062616c616e636520717565727920666f7220746865207a6560008201527f726f206164647265737300000000000000000000000000000000000000000000602082015250565b7f4552433732313a206f776e657220717565727920666f72206e6f6e657869737460008201527f656e7420746f6b656e0000000000000000000000000000000000000000000000602082015250565b7f4e6f7420656e6f756768204e4654730000000000000000000000000000000000600082015250565b7f4552433732313a206d696e7420746f20746865207a65726f2061646472657373600082015250565b7f4e6f206574686572206c65667420746f20776974686472617700000000000000600082015250565b7f4552433732313a20617070726f76656420717565727920666f72206e6f6e657860008201527f697374656e7420746f6b656e0000000000000000000000000000000000000000602082015250565b7f4f776e61626c653a2063616c6c6572206973206e6f7420746865206f776e6572600082015250565b7f4552433732314d657461646174613a2055524920717565727920666f72206e6f60008201527f6e6578697374656e7420746f6b656e0000000000000000000000000000000000602082015250565b7f4552433732313a20617070726f76616c20746f2063757272656e74206f776e6560008201527f7200000000000000000000000000000000000000000000000000000000000000602082015250565b50565b7f5472616e73666572206661696c65642e00000000000000000000000000000000600082015250565b7f4552433732313a207472616e736665722063616c6c6572206973206e6f74206f60008201527f776e6572206e6f7220617070726f766564000000000000000000000000000000602082015250565b7f455243373231456e756d657261626c653a20676c6f62616c20696e646578206f60008201527f7574206f6620626f756e64730000000000000000000000000000000000000000602082015250565b6141ea81613946565b81146141f557600080fd5b50565b61420181613958565b811461420c57600080fd5b50565b61421881613964565b811461422357600080fd5b50565b61422f816139b0565b811461423a57600080fd5b5056fea2646970667358221220d832f3f665fea1710d61fcd126cd9a121112d93619fe1998d6fc16eba65b357464736f6c63430008040033",
  "linkReferences": {},
  "deployedLinkReferences": {}
}